:0A0D9D00000102020303040405052F
:1005BC00E4F52CF52BF52AF529C203C200C202C2C0
:1005CC0001120DBF7E087F6B8E0A8F0B751208759A
:1005DC00137D7508087509877510087511A77514B2
:1005EC00087515C7EE54E07003020708752D0075E9
:1005FC002E808E2F8F30C374F19FFF74089ECF24F2
:10060C0002CF3400FEE48F288E27F526F525F5243D
:10061C00F523F522F521AF28AE27AD26AC25AB246A
:10062C00AA23A922A821C3120A07502AE52E2524A1
:10063C00F582E52D3523F58374CDF0E4FAF9F8E570
:10064C00242401F524EA3523F523E93522F522E8A3
:10065C003521F52180C0E4F524F523F522F521AFF1
:10066C0028AE27AD26AC25AB24AA23A922A821C3EA
:10067C00120A075035AE23AF24E5302FF582E52F53
:10068C003EF583E0FDE52E2FF582E52D3EF583ED5D
:10069C00F0E4FAF9F8EF2401F524EA3EF523E93504
:1006AC0022F522E83521F52180B5852D0A852E0B02
:1006BC00746B2480FF740834FFFEC3E5139FF5139D
:1006CC00E5129EF512C3E50D9FF50DE50C9EF50C9C
:1006DC00C3E50F9FF50FE50E9EF50EC3E5099FF5DB
:1006EC0009E5089EF508C3E5119FF511E5109EF587
:1006FC0010C3E5159FF515E5149EF514D2E843D803
:10070C002090E668E04409F090E65CE0443DF0D2CD
:10071C00AF90E680E054F7F0538EF8C20330010539
:10072C00120323C201300329120DC95024C2031233
:10073C000CB920001690E682E030E704E020E1EFEF
:10074C0090E682E030E604E020E0E4120C61120D49
:06075C00CB1208FF80C76C
:010762002274
:1003230090E6B9E070030203FE1470030204A724ED
:10033300FE700302053C24FB70030203F8147003F0
:100343000203F21470030203E61470030203EC24A5
:100353000560030205A8120DCD40030205B490E623
:10036300BBE024FE602C14604724FD60161460314A
:1003730024067065E50A90E6B3F0E50B90E6B4F069
:100383000205B4E51290E6B3F0E51390E6B4F0028B
:1003930005B4E50C90E6B3F0E50D90E6B4F0020584
:1003A300B4E50E90E6B3F0E50F90E6B4F00205B4C1
:1003B30090E6BAE0FF120C8DAA06A9077B01EA4971
:1003C300600DEE90E6B3F0EF90E6B4F00205B49062
:1003D300E6A0E04401F00205B490E6A0E04401F099
:1003E3000205B4120D8B0205B4120DAF0205B4124F
:1003F3000DA70205B4120D790205B4120DCF400307
:100403000205B490E6B8E0247F602B14603C24021C
:10041300600302049DA200E433FF25E0FFA202E48F
:10042300334F90E740F0E4A3F090E68AF090E68B38
:100433007402F00205B4E490E740F0A3F090E68A7A
:10044300F090E68B7402F00205B490E6BCE0547EB3
:10045300FF7E00E0D3948040067C007D0180047C15
:10046300007D00EC4EFEED4F249DF582740D3EF5AC
:1004730083E493FF3395E0FEEF24A1FFEE34E68F90
:1004830082F583E0540190E740F0E4A3F090E68A1C
:10049300F090E68B7402F00205B490E6A0E044010C
:1004A300F00205B4120DD140030205B490E6B8E0A2
:1004B30024FE601D240260030205B490E6BAE0B492
:1004C3000105C2000205B490E6A0E04401F0020574
:1004D300B490E6BAE0705990E6BCE0547EFF7E002B
:1004E300E0D3948040067C007D0180047C007D0085
:1004F300EC4EFEED4F249DF582740D3EF583E4939F
:10050300FF3395E0FEEF24A1FFEE34E68F82F583FF
:10051300E054FEF090E6BCE05480FF131313541F25
:10052300FFE0540F2F90E683F0E04420F00205B47F
:1005330090E6A0E04401F08078120DD3507390E66A
:10054300B8E024FE60202402706790E6BAE0B401AC
:1005530004D200805C90E6BAE06402605490E6A0A6
:10056300E04401F0804B90E6BCE0547EFF7E00E067
:10057300D3948040067C007D0180047C007D00ECE8
:100583004EFEED4F249DF582740D3EF583E493FFFB
:100593003395E0FEEF24A1FFEE34E68F82F583E08E
:1005A3004401F0800C120080500790E6A0E0440163
:0805B300F090E6A0E04480F0A6
:0105BB00221D
:03003300020DC5F6
:040DC50053D8EF32DE
:060DBF00D200120DB72264
:0108FF0022D6
:020DC900D32233
:020DCB00D32231
:020DCD00D3222F
:080DA70090E6BAE0F51ED3222C
:100D790090E740E51EF0E490E68AF090E68B04F0F7
:020D8900D32273
:080DAF0090E6BAE0F51CD32226
:100D8B0090E740E51CF0E490E68AF090E68B04F0E7
:020D9B00D32261
:020DCF00D3222D
:020DD100D3222B
:020DD300D32229
:10008000751D51E51D13E433F51F90E6B9E0245EBC
:10009000B40B00400302032190009FF8282873024C
:1000A00001990201990201140200C00200DA020063
:1000B000FA02014302019302011D020130020169AB
:1000C00090E740E51FF0E490E68AF090E68B04F0BC
:1000D00090E6A0E04480F002032190E600E0FFC437
:1000E000540F90E740F0E490E68AF090E68B04F03D
:1000F00090E6A0E04480F002032190E740740FF006
:10010000E490E68AF090E68B04F090E6A0E044806C
:10011000F002032190E6BAE0F51D02032190E67A91
:10012000E054FEF0E490E68AF090E68BF0020321C2
:1001300090E67AE04401F0E490E68AF090E68BF0F5
:1001400002032190E7407407F0E490E68AF090E61D
:100150008B04F090E6A0E04480F07FE87E03120A72
:10016000ADD204120C3202032190E6B5E054FEF049
:1001700090E6BFE090E68AF090E6BEE090E68BF075
:1001800090E6BBE090E6B3F090E6BAE090E6B4F01B
:10019000020321751F01431D0190E6BAE07531008D
:1001A000F532A3E0FEE4EE423190E6BEE0753300A6
:1001B000F534A3E0FEE4EE423390E6B8E064C060BC
:1001C00003020289E5344533700302032190E6A05F
:1001D000E020E1F9C3E5349440E53394005008850C
:1001E0003335853436800675350075364090E6B96E
:1001F000E0B4A335E4F537F538C3E5389536E5378F
:1002000095355060E5322538F582E5313537F5838F
:10021000E0FF74402538F582E434E7F583EFF0051C
:1002200038E5387002053780D0E4F537F538C3E596
:10023000389536E5379535501874402538F582E401
:1002400034E7F58374CDF00538E538700205378062
:10025000DDAD367AE779407EE77F40AB07AF32AE5F
:1002600031120A18E490E68AF090E68BE536F02524
:1002700032F532E5353531F531C3E5349536F534AF
:10028000E5339535F5330201C490E6B8E06440608B
:1002900003020321E53445337003020321E490E6B1
:1002A0008AF090E68BF090E6A0E020E1F990E68BF2
:1002B000E0753500F53690E6B9E0B4A335E4F537DE
:1002C000F538C3E5389536E537953550387440250F
:1002D00038F582E434E7F583E0FFE5322538F5822E
:1002E000E5313537F583EFF00538E538700205372D
:1002F00080D0AD367AE779407EE77F40AB07AF32FA
:10030000AE31120B97E5362532F532E5353531F54C
:1003100031C3E5349536F534E5339535F5330202CE
:0203200094C384
:0103220022B8
:100CDE00C0E0C083C08290E6B5E04401F0D201537B
:0F0CEE0091EF90E65D7401F0D082D083D0E032B8
:100D4D00C0E0C083C0825391EF90E65D7404F0D093
:060D5D0082D083D0E032D9
:100D6300C0E0C083C0825391EF90E65D7402F0D07F
:060D730082D083D0E032C3
:100AF300C0E0C083C08290E680E030E70E85080C3A
:100B030085090D85100E85110F800C85100C85113C
:100B13000D85080E85090F5391EF90E65D7410F073
:070B2300D082D083D0E03244
:100D3500C0E0C083C082D2035391EF90E65D740892
:080D4500F0D082D083D0E0322F
:100B2A00C0E0C083C08290E680E030E70E85080C02
:100B3A0085090D85100E85110F800C85100C851105
:100B4A000D85080E85090F5391EF90E65D7420F02C
:070B5A00D082D083D0E0320D
:010DD50032EB
:010DD60032EA
:010DD70032E9
:010DD80032E8
:010DD90032E7
:010DDA0032E6
:010DDB0032E5
:010DDC0032E4
:010DDD0032E3
:010DDE0032E2
:010DDF0032E1
:010DE00032E0
:010DE10032DF
:010DE20032DE
:010DE30032DD
:010DE40032DC
:010DE50032DB
:010DE60032DA
:010DE70032D9
:010DE80032D8
:010DE90032D7
:010DEA0032D6
:010DEB0032D5
:010DEC0032D4
:010DED0032D3
:010DEE0032D2
:010DEF0032D1
:010DF00032D0
:010DF10032CF
:010DF20032CE
:010DF30032CD
:010DF40032CC
:010DF50032CB
:010DF60032CA
:010DF70032C9
:010DF80032C8
:060A6300AB07AA06AC057A
:100A6900E4FDE51F6010EA7E000DEE2400F582E446
:100A79003410F583EAF0EBAE050D74002EF582E42F
:100A89003410F583EBF0AF050D74002FF582E434D3
:100A990010F583ECF07A107B00AF1D120D19AF1D14
:030AA900120B61CC
:010AAC002227
:0A0B97008E398F3A8D3B8A3C8B3D6E
:100BA100E4F53EE53EC3953B5020053AE53AAE39C2
:100BB1007002053914FFE53D253EF582E4353CF52B
:0A0BC10083E0FD120A63053E80D9AF
:010BCB002207
:0A0A18008E398F3A8D3B8A3C8B3DEE
:100A2200E4FDF53EE51F6012E539FF7E000DEE2480
:100A320000F582E43410F583EFF0E53AAE050D746B
:100A4200002EF582E43410F583E53AF07A107B004B
:100A5200AF1D120D19AB3DAA3CAD3BAF1D120CFDF3
:010A62002271
:10086B00120100020000004004B4861300000102D4
:10087B0000010A06000200000040010009022000EE
:10088B00010100A0320904000002FF00000007056F
:10089B000202000200070586020002000902200086
:1008AB00010100A0320904000002FF00000007054F
:1008BB000102400000070581024000000403090407
:1008CB001003430079007000720065007300730021
:1008DB00160345005A002D0055005300420020001E
:0808EB00460058003200000035
:100C610090E682E030E004E020E60B90E682E0309E
:100C7100E119E030E71590E680E04401F07F147E51
:0C0C810000120AAD90E680E054FEF02264
:100CB90090E682E044C0F090E681F04387010000AD
:040CC9000000002205
:100C320030040990E680E0440AF0800790E680E004
:100C42004408F07FDC7E05120AAD90E65D74FFF089
:0F0C520090E65FF05391EF90E680E054F7F022C8
:100AAD008E398F3A90E600E054187012E53A240121
:100ABD00FFE43539C313F539EF13F53A801590E698
:100ACD0000E05418FFBF100BE53A25E0F53AE53983
:100ADD0033F539E53A153AAE39700215394E6005E0
:060AED00120CCD80EE2288
:080DB700E4F51BD2E9D2AF22E2
:100B610090E678E020E6F9C2E990E678E04480F08A
:100B7100EF25E090E679F090E678E030E0F990E654
:100B810078E04440F090E678E020E6F990E678E0FD
:060B910030E1D6D2E9229A
:100C0000A90790E678E020E6F9E51B702390E678E6
:100C1000E04480F0E925E090E679F08D16AF03A975
:100C2000077517018A188919E4F51A751B01D32273
:020C3000C322DD
:100BCC00A90790E678E020E6F9E51B702590E67819
:100BDC00E04480F0E925E0440190E679F08D16AF11
:100BEC0003A9077517018A188919E4F51A751B03EF
:040BFC00D322C3221B
:03004B0002076346
:10076300C0E0C083C082C085C084C086758600C0D7
:10077300D075D000C000C001C002C003C006C007CE
:1007830090E678E030E206751B0602084D90E678A5
:10079300E020E10CE51B64026006751B0702084DAF
:1007A300E51B24FE605F14603624FE700302083EDE
:1007B30024FC700302084A2408600302084DAB17A7
:1007C300AA18A919AF1A051A8F827583001209B8DE
:1007D30090E679F0E51A65167070751B05806B90CD
:1007E300E679E0AB17AA18A919AE1A8E82758300B1
:1007F3001209E5751B02E5166401704E90E678E078
:100803004420F08045E51624FEB51A0790E678E00B
:100813004420F0E51614B51A0A90E678E04440F057
:10082300751B0090E679E0AB17AA18A919AE1A8ECA
:10083300827583001209E5051A800F90E678E0447B
:1008430040F0751B008003751B005391DFD007D068
:1008530006D003D002D001D000D0D0D086D084D02F
:0808630085D082D083D0E03281
:020C8D00A907B5
:100C8F00AE14AF158F828E83A3E064037017AD018E
:100C9F0019ED7001228F828E83E07C002FFDEC3ED8
:090CAF00FEAF0580DF7E007F002E
:010CB8002219
:100CFD00120BCCE51B24FA600E146006240770F36A
:0C0D0D00D322E4F51BD322E4F51BD32213
:100D1900120C00E51B24FA600E146006240770F318
:0C0D2900D322E4F51BD322E4F51BD322F7
:100CCD007400F58690FDA57C05A3E582458370F93A
:010CDD0022F4
:03004300020900AF
:030053000209009F
:10090000020CDE00020D6300020D4D00020D3500E9
:10091000020AF300020B2A00020DD500020DD600D8
:10092000020DD700020DD800020DD900020DDA0029
:10093000020DDB00020DDC00020DDD00020DDE0009
:10094000020DDF00020DD600020DE000020DE100F5
:10095000020DE200020DE300020DE400020DE500CD
:10096000020DE600020DD600020DD600020DD600E3
:10097000020DE700020DE800020DE900020DEA0099
:10098000020DEB00020DEC00020DED00020DEE0079
:10099000020DEF00020DF000020DF100020DF20059
:1009A000020DF300020DF400020DF500020DF60039
:0809B000020DF700020DF80032
:030000000208F300
:0C08F300787FE4F6D8FD75813E0205BC5C
:1009B800BB010CE58229F582E5833AF583E02250F4
:1009C80006E92582F8E622BBFE06E92582F8E2223E
:0D09D800E58229F582E5833AF583E4932258
:1009E500F8BB010DE58229F582E5833AF583E8F048
:1009F500225006E92582C8F622BBFE05E92582C8F4
:020A0500F222DB
:100A0700EB9FF5F0EA9E42F0E99D42F0E89C45F045
:010A170022BC
:00000001FF
